:020000040000FA
:1000000088020010C5010000CD010000CF010000F2
:10001000D1010000D3010000D50100000000000064
:10002000000000000000000000000000D7010000F8
:10003000D901000000000000DB0100007104000095
:10004000DF010000DF010000DF010000DF01000030
:10005000DF010000DF010000DF010000DF01000020
:10006000DF010000DF010000DF010000DF01000010
:10007000DF010000DF010000DF010000DF01000000
:10008000DF010000DF010000DF010000DF010000F0
:10009000DF010000DF010000DF010000DF010000E0
:1000A000DF010000DF010000DF010000DF010000D0
:1000B000DF010000DF010000DF010000DF010000C0
:1000C000DF010000DF010000DF010000DF010000B0
:1000D000DF010000DF010000DF010000DF010000A0
:1000E000DF010000DF010000DF010000DF01000090
:1000F000DF010000DF010000DF010000DF01000080
:10010000DF010000DF010000DF010000DF0100006F
:10011000DF0100004104000011040000E1030000C1
:10012000B1030000DF01000000F002F800F03AF82F
:100130000AA090E8000C82448344AAF10107DA4542
:1001400001D100F02FF8AFF2090EBAE80F0013F05A
:10015000010F18BFFB1A43F00103184744040000C5
:1001600064040000103A24BF78C878C1FAD8520756
:1001700024BF30C830C144BF04680C607047000021
:100180000023002400250026103A28BF78C1FBD8A0
:10019000520728BF30C148BF0B6070471FB51FBD55
:1001A00010B510BD00F02FF81146FFF7F7FF00F073
:1001B000AFF900F04DF803B4FFF7F2FF03BC00F015
:1001C00055F800000948804709480047FEE7FEE768
:1001D000FEE7FEE7FEE7FEE7FEE7FEE7FEE7FEE7F7
:1001E00004480549034A054B704700008504000098
:1001F000290100008800001088020010880000100B
:10020000704770477047754600F02CF8AE46050001
:100210006946534620F00700854618B020B5FFF721
:10022000DFFFBDE820404FF000064FF000074FF021
:1002300000084FF0000B21F00701AC46ACE8C00904
:10024000ACE8C009ACE8C009ACE8C0098D4670470D
:1002500010B50446AFF300802046BDE81040FFF71C
:10026000AABF00000048704728000010014918206C
:10027000ABBEFEE7260002007047000010B509483B
:10028000016841F040010160382000F085F8372016
:1002900000F082F8362000F07FF8BDE810403520ED
:1002A00000F07AB88080044001228A4000280AD0F9
:1002B00001280DD0022810D0032803D10948C169B4
:1002C0001143C16170470848C1691143C16170475A
:1002D0000648C1691143C16170470548C1691143AE
:1002E000C1617047008003500080005000800150C1
:1002F000008002500000000000000000FFFFFFFF30
:100300000346002001228A40002B0BD0012B0FD086
:10031000022B13D0032B04D10B498969114200D061
:1003200001207047094989691142FAD001207047BC
:10033000074989691142FAD0012070470549896946
:100340001142FAD001207047008003500080005015
:10035000008001500080025010B5084C01238B40F2
:1003600054F82000002A00F5004003D0016819432A
:10037000016010BD01689943016010BD9005000047
:10038000044B8A4053F820300120884043F8202055
:10039000704700009005000000F01F02012191400D
:1003A0004009800000F1E020C0F800117047000013
:1003B00010B50A4C2068401C206001210020FFF786
:1003C0009FFF002808D02069401C20610121BDE862
:1003D00010400020FFF768BF10BD000004000010AF
:1003E00010B50A4C6068401C606001210846FFF7A8
:1003F00087FF002808D06069401C60610121BDE8CA
:1004000010400846FFF750BF10BD00000400001068
:1004100010B50A4CA068401CA06001210220FFF723
:100420006FFF002808D0A069401CA0610121BDE831
:1004300010400220FFF738BF10BD0000040000107C
:1004400010B50A4CE068401CE06001210320FFF772
:1004500057FF002808D0E069401CE0610121BDE899
:1004600010400320FFF720BF10BD00000400001063
:1004700003480168491C02D00168491C01607047AB
:100480000000001008B52148D0F8381221F02001F2
:10049000C0F8381200230362009303E000BF009904
:1004A000491C00910099C829F8D3012202644364D1
:1004B000426425218160D0F8381221F08001C0F813
:1004C0003812C168C907FCD003210167436742673E
:1004D0008267816FC0F8B010D0F8381221F48061C3
:1004E000C0F83812D0F8381221F48071C0F83812F0
:1004F0008264C364C264232101614169C907FCD0DD
:1005000040F8C03F0360826008BD000000800440E6
:10051000FFF7B8FF174800684008401EB0F1807F21
:1005200009D24FF0E0214861134AE020107000200A
:10053000886107200861FFF7A1FE01220521032041
:10054000FFF70AFF002205210320FFF719FF4FF4F0
:100550007A74002205210320FFF712FF204600F0E5
:100560000DF8012205210320FFF70AFF204600F0C5
:1005700005F8EEE72400001023ED00E00349002217
:100580000A600A688242FCD3704700000000001035
:100590000000005000000150000002500000035015
:1005A000C0050000000000102800000064010000E9
:1005B000E805000028000010600200008001000033
:1005C000000000000000000000000000000000002B
:1005D000000000000000000000000000000000001B
:0805E0000000000000A24A0423
:0400000500000129CD
:00000001FF
